{
  "contractName": "Migration",
  "abi": [
    {
      "inputs": [],
      "stateMutability": "nonpayable",
      "type": "constructor"
    },
    {
      "inputs": [],
      "name": "last_completed_migration",
      "outputs": [
        {
          "internalType": "uint256",
          "name": "",
          "type": "uint256"
        }
      ],
      "stateMutability": "view",
      "type": "function",
      "constant": true
    },
    {
      "inputs": [],
      "name": "owner",
      "outputs": [
        {
          "internalType": "address",
          "name": "",
          "type": "address"
        }
      ],
      "stateMutability": "view",
      "type": "function",
      "constant": true
    },
    {
      "inputs": [
        {
          "internalType": "uint256",
          "name": "amount",
          "type": "uint256"
        }
      ],
      "name": "setComponent",
      "outputs": [],
      "stateMutability": "view",
      "type": "function",
      "constant": true
    },
    {
      "inputs": [
        {
          "internalType": "address",
          "name": "new_address",
          "type": "address"
        }
      ],
      "name": "update",
      "outputs": [],
      "stateMutability": "view",
      "type": "function",
      "constant": true
    }
  ],
  "bytecode": "0x608060405234801561000f575f80fd5b50335f806101000a81548173ffffffffffffffffffffffffffffffffffffffff021916908373ffffffffffffffffffffffffffffffffffffffff1602179055506103288061005c5f395ff3fe608060405234801561000f575f80fd5b506004361061004a575f3560e01c80631c1b87721461004e578063445df0ac1461006a5780638da5cb5b14610088578063bf7bc054146100a6575b5f80fd5b61006860048036038101906100639190610219565b6100c2565b005b610072610184565b60405161007f919061025c565b60405180910390f35b61009061018a565b60405161009d9190610284565b60405180910390f35b6100c060048036038101906100bb91906102c7565b6101ad565b005b5f8054906101000a900473ffffffffffffffffffffffffffffffffffffffff1673ffffffffffffffffffffffffffffffffffffffff163373ffffffffffffffffffffffffffffffffffffffff1603610181575f8190508073ffffffffffffffffffffffffffffffffffffffff1663bf7bc0546001546040518263ffffffff1660e01b8152600401610153919061025c565b5f6040518083038186803b158015610169575f80fd5b505afa15801561017b573d5f803e3d5ffd5b50505050505b50565b60015481565b5f8054906101000a900473ffffffffffffffffffffffffffffffffffffffff1681565b5f8054906101000a90505050565b5f80fd5b5f73ffffffffffffffffffffffffffffffffffffffff82169050919050565b5f6101e8826101bf565b9050919050565b6101f8816101de565b8114610202575f80fd5b50565b5f81359050610213816101ef565b92915050565b5f6020828403121561022e5761022d6101bb565b5b5f61023b84828501610205565b91505092915050565b5f819050919050565b61025681610244565b82525050565b5f60208201905061026f5f83018461024d565b92915050565b61027e816101de565b82525050565b5f6020820190506102975f830184610275565b92915050565b6102a681610244565b81146102b0575f80fd5b50565b5f813590506102c18161029d565b92915050565b5f602082840312156102dc576102db6101bb565b5b5f6102e9848285016102b3565b9150509291505056fea2646970667358221220ab72ef7bf9cd9797b119a1b8c6ca6d037d1e9b5effc52b24cadcf354cbf5c15064736f6c63430008140033",
  "immutableReferences": {},
  "source": "// SPDX-License-Identifier: MIT\npragma solidity ^0.8.13;\n\n\n\ncontract Migration{\n    address public owner;\n    uint public last_completed_migration;\n\nconstructor()public{\n     owner = msg.sender;\n}\n\n\nmodifier restricted(){\n    if(msg.sender == owner)_;\n}\n\nfunction setComponent(uint amount)public view restricted{\n    last_completed_migration == amount;\n}\n\nfunction update(address new_address)public view restricted{\n    Migration update = Migration(new_address);\n    update.setComponent(last_completed_migration);\n    \n}\n\n}",
  "sourcePath": "/home/piti/web/MyDefi/src/contracts/Migration.sol",
  "compiler": {
    "name": "solc",
    "version": "0.8.20+commit.a1b79de6.Emscripten.clang"
  },
  "schemaVersion": "3.4.14",
  "updatedAt": "2023-07-12T07:38:57.059Z",
  "networkType": "ethereum",
  "devdoc": {
    "kind": "dev",
    "methods": {},
    "version": 1
  },
  "userdoc": {
    "kind": "user",
    "methods": {},
    "version": 1
  }
}