{
  "contractName": "RWD",
  "abi": [
    {
      "inputs": [],
      "stateMutability": "nonpayable",
      "type": "constructor"
    },
    {
      "anonymous": false,
      "inputs": [
        {
          "indexed": true,
          "internalType": "address",
          "name": "_owner",
          "type": "address"
        },
        {
          "indexed": true,
          "internalType": "address",
          "name": "_spender",
          "type": "address"
        },
        {
          "indexed": false,
          "internalType": "uint256",
          "name": "_value",
          "type": "uint256"
        }
      ],
      "name": "Approval",
      "type": "event"
    },
    {
      "anonymous": false,
      "inputs": [
        {
          "indexed": true,
          "internalType": "address",
          "name": "_from",
          "type": "address"
        },
        {
          "indexed": true,
          "internalType": "address",
          "name": "_to",
          "type": "address"
        },
        {
          "indexed": false,
          "internalType": "uint256",
          "name": "_value",
          "type": "uint256"
        }
      ],
      "name": "Transfer",
      "type": "event"
    },
    {
      "inputs": [],
      "name": "decimal",
      "outputs": [
        {
          "internalType": "uint256",
          "name": "",
          "type": "uint256"
        }
      ],
      "stateMutability": "view",
      "type": "function",
      "constant": true
    },
    {
      "inputs": [],
      "name": "name",
      "outputs": [
        {
          "internalType": "string",
          "name": "",
          "type": "string"
        }
      ],
      "stateMutability": "view",
      "type": "function",
      "constant": true
    },
    {
      "inputs": [],
      "name": "symbol",
      "outputs": [
        {
          "internalType": "string",
          "name": "",
          "type": "string"
        }
      ],
      "stateMutability": "view",
      "type": "function",
      "constant": true
    },
    {
      "inputs": [],
      "name": "totalSupply",
      "outputs": [
        {
          "internalType": "uint256",
          "name": "",
          "type": "uint256"
        }
      ],
      "stateMutability": "view",
      "type": "function",
      "constant": true
    },
    {
      "inputs": [
        {
          "internalType": "address",
          "name": "_to",
          "type": "address"
        },
        {
          "internalType": "uint256",
          "name": "_value",
          "type": "uint256"
        }
      ],
      "name": "transfer",
      "outputs": [
        {
          "internalType": "bool",
          "name": "succeed",
          "type": "bool"
        }
      ],
      "stateMutability": "nonpayable",
      "type": "function"
    },
    {
      "inputs": [
        {
          "internalType": "address",
          "name": "_spender",
          "type": "address"
        },
        {
          "internalType": "uint256",
          "name": "_value",
          "type": "uint256"
        }
      ],
      "name": "approve",
      "outputs": [
        {
          "internalType": "bool",
          "name": "succeed",
          "type": "bool"
        }
      ],
      "stateMutability": "nonpayable",
      "type": "function"
    },
    {
      "inputs": [
        {
          "internalType": "address",
          "name": "_from",
          "type": "address"
        },
        {
          "internalType": "address",
          "name": "_to",
          "type": "address"
        },
        {
          "internalType": "uint256",
          "name": "_value",
          "type": "uint256"
        }
      ],
      "name": "approve",
      "outputs": [
        {
          "internalType": "bool",
          "name": "succeed",
          "type": "bool"
        }
      ],
      "stateMutability": "nonpayable",
      "type": "function"
    }
  ],
  "bytecode": "0x60806040526040518060400160405280600c81526020017f52657761726420546f6b656e00000000000000000000000000000000000000008152505f90816200004991906200035f565b506040518060400160405280600381526020017f5257440000000000000000000000000000000000000000000000000000000000815250600190816200009091906200035f565b5069d3c21bcecceda10000006002556012600355348015620000b0575f80fd5b5060025460045f3373ffffffffffffffffffffffffffffffffffffffff1673ffffffffffffffffffffffffffffffffffffffff1681526020019081526020015f208190555062000443565b5f81519050919050565b7f4e487b71000000000000000000000000000000000000000000000000000000005f52604160045260245ffd5b7f4e487b71000000000000000000000000000000000000000000000000000000005f52602260045260245ffd5b5f60028204905060018216806200017757607f821691505b6020821081036200018d576200018c62000132565b5b50919050565b5f819050815f5260205f209050919050565b5f6020601f8301049050919050565b5f82821b905092915050565b5f60088302620001f17fffffffffffffffffffffffffffffffffffffffffffffffffffffffffffffffff82620001b4565b620001fd8683620001b4565b95508019841693508086168417925050509392505050565b5f819050919050565b5f819050919050565b5f62000247620002416200023b8462000215565b6200021e565b62000215565b9050919050565b5f819050919050565b620002628362000227565b6200027a62000271826200024e565b848454620001c0565b825550505050565b5f90565b6200029062000282565b6200029d81848462000257565b505050565b5b81811015620002c457620002b85f8262000286565b600181019050620002a3565b5050565b601f8211156200031357620002dd8162000193565b620002e884620001a5565b81016020851015620002f8578190505b620003106200030785620001a5565b830182620002a2565b50505b505050565b5f82821c905092915050565b5f620003355f198460080262000318565b1980831691505092915050565b5f6200034f838362000324565b9150826002028217905092915050565b6200036a82620000fb565b67ffffffffffffffff81111562000386576200038562000105565b5b6200039282546200015f565b6200039f828285620002c8565b5f60209050601f831160018114620003d5575f8415620003c0578287015190505b620003cc858262000342565b8655506200043b565b601f198416620003e58662000193565b5f5b828110156200040e57848901518255600182019150602085019450602081019050620003e7565b868310156200042e57848901516200042a601f89168262000324565b8355505b6001600288020188555050505b505050505050565b610ac380620004515f395ff3fe608060405234801561000f575f80fd5b506004361061007b575f3560e01c806376809ce31161005957806376809ce3146100eb57806395d89b4114610109578063a9059cbb14610127578063e1f21c67146101575761007b565b806306fdde031461007f578063095ea7b31461009d57806318160ddd146100cd575b5f80fd5b610087610187565b6040516100949190610803565b60405180910390f35b6100b760048036038101906100b291906108b4565b610212565b6040516100c4919061090c565b60405180910390f35b6100d5610310565b6040516100e29190610934565b60405180910390f35b6100f3610316565b6040516101009190610934565b60405180910390f35b61011161031c565b60405161011e9190610803565b60405180910390f35b610141600480360381019061013c91906108b4565b6103a8565b60405161014e919061090c565b60405180910390f35b610171600480360381019061016c919061094d565b610507565b60405161017e919061090c565b60405180910390f35b5f8054610193906109ca565b80601f01602080910402602001604051908101604052809291908181526020018280546101bf906109ca565b801561020a5780601f106101e15761010080835404028352916020019161020a565b820191905f5260205f20905b8154815290600101906020018083116101ed57829003601f168201915b505050505081565b5f8160055f3373ffffffffffffffffffffffffffffffffffffffff1673ffffffffffffffffffffffffffffffffffffffff1681526020019081526020015f205f8573ffffffffffffffffffffffffffffffffffffffff1673ffffffffffffffffffffffffffffffffffffffff1681526020019081526020015f205f82825461029a9190610a27565b925050819055508273ffffffffffffffffffffffffffffffffffffffff163373ffffffffffffffffffffffffffffffffffffffff167f8c5be1e5ebec7d5bd14f71427d1e84f3dd0314c0f7b2291e5b200ac8c7c3b925846040516102fe9190610934565b60405180910390a36001905092915050565b60025481565b60035481565b60018054610329906109ca565b80601f0160208091040260200160405190810160405280929190818152602001828054610355906109ca565b80156103a05780601f10610377576101008083540402835291602001916103a0565b820191905f5260205f20905b81548152906001019060200180831161038357829003601f168201915b505050505081565b5f8160045f3373ffffffffffffffffffffffffffffffffffffffff1673ffffffffffffffffffffffffffffffffffffffff1681526020019081526020015f205410156103f2575f80fd5b8160045f8573ffffffffffffffffffffffffffffffffffffffff1673ffffffffffffffffffffffffffffffffffffffff1681526020019081526020015f205f82825461043e9190610a5a565b925050819055508160045f3373ffffffffffffffffffffffffffffffffffffffff1673ffffffffffffffffffffffffffffffffffffffff1681526020019081526020015f205f8282546104919190610a27565b925050819055508273ffffffffffffffffffffffffffffffffffffffff163373ffffffffffffffffffffffffffffffffffffffff167fddf252ad1be2c89b69c2b068fc378daa952ba7f163c4a11628f55a4df523b3ef846040516104f59190610934565b60405180910390a36001905092915050565b5f8160055f8673ffffffffffffffffffffffffffffffffffffffff1673ffffffffffffffffffffffffffffffffffffffff1681526020019081526020015f205f3373ffffffffffffffffffffffffffffffffffffffff1673ffffffffffffffffffffffffffffffffffffffff1681526020019081526020015f2054101561058c575f80fd5b8160045f8673ffffffffffffffffffffffffffffffffffffffff1673ffffffffffffffffffffffffffffffffffffffff1681526020019081526020015f205410156105d5575f80fd5b8160045f8573ffffffffffffffffffffffffffffffffffffffff1673ffffffffffffffffffffffffffffffffffffffff1681526020019081526020015f205f8282546106219190610a5a565b925050819055508160045f8673ffffffffffffffffffffffffffffffffffffffff1673ffffffffffffffffffffffffffffffffffffffff1681526020019081526020015f205f8282546106749190610a27565b925050819055508160055f3373ffffffffffffffffffffffffffffffffffffffff1673ffffffffffffffffffffffffffffffffffffffff1681526020019081526020015f205f8673ffffffffffffffffffffffffffffffffffffffff1673ffffffffffffffffffffffffffffffffffffffff1681526020019081526020015f205f8282546107029190610a27565b925050819055508273ffffffffffffffffffffffffffffffffffffffff168473ffffffffffffffffffffffffffffffffffffffff167fddf252ad1be2c89b69c2b068fc378daa952ba7f163c4a11628f55a4df523b3ef846040516107669190610934565b60405180910390a3600190509392505050565b5f81519050919050565b5f82825260208201905092915050565b5f5b838110156107b0578082015181840152602081019050610795565b5f8484015250505050565b5f601f19601f8301169050919050565b5f6107d582610779565b6107df8185610783565b93506107ef818560208601610793565b6107f8816107bb565b840191505092915050565b5f6020820190508181035f83015261081b81846107cb565b905092915050565b5f80fd5b5f73ffffffffffffffffffffffffffffffffffffffff82169050919050565b5f61085082610827565b9050919050565b61086081610846565b811461086a575f80fd5b50565b5f8135905061087b81610857565b92915050565b5f819050919050565b61089381610881565b811461089d575f80fd5b50565b5f813590506108ae8161088a565b92915050565b5f80604083850312156108ca576108c9610823565b5b5f6108d78582860161086d565b92505060206108e8858286016108a0565b9150509250929050565b5f8115159050919050565b610906816108f2565b82525050565b5f60208201905061091f5f8301846108fd565b92915050565b61092e81610881565b82525050565b5f6020820190506109475f830184610925565b92915050565b5f805f6060848603121561096457610963610823565b5b5f6109718682870161086d565b93505060206109828682870161086d565b9250506040610993868287016108a0565b9150509250925092565b7f4e487b71000000000000000000000000000000000000000000000000000000005f52602260045260245ffd5b5f60028204905060018216806109e157607f821691505b6020821081036109f4576109f361099d565b5b50919050565b7f4e487b71000000000000000000000000000000000000000000000000000000005f52601160045260245ffd5b5f610a3182610881565b9150610a3c83610881565b9250828203905081811115610a5457610a536109fa565b5b92915050565b5f610a6482610881565b9150610a6f83610881565b9250828201905080821115610a8757610a866109fa565b5b9291505056fea2646970667358221220e1471242483f1ad93599de0bb55d5849a4db724c72d48f34fe63661da55e013c64736f6c63430008140033",
  "immutableReferences": {},
  "source": "// SPDX-License-Identifier: MIT\npragma solidity ^0.8.13;\n\ncontract RWD{\n    string public name = \"Reward Token\";\n    string public symbol = \"RWD\";\n    uint public totalSupply = 1000000000000000000000000;\n    uint public decimal = 18;\n    mapping(address => uint) balanceOf;\n    mapping(address => mapping(address => uint))allowAnce;\n\n    event Transfer(\n        address indexed _from,\n        address indexed _to,\n        uint _value\n\n    );\n\n    event Approval(\n        address indexed _owner,\n        address indexed _spender,\n        uint _value\n    );\n\n    constructor() public{\n        balanceOf[msg.sender] = totalSupply;\n    }\n\n\n    function transfer(address _to, uint256 _value)public returns(bool succeed){\n        // Abality to transacting\n        require(balanceOf[msg.sender] >= _value);\n        // Add to receiver\n        balanceOf[_to] += _value;\n        // subtract the sender\n        balanceOf[msg.sender] -= _value;\n        emit Transfer(msg.sender, _to, _value);\n        return true;\n    }\n\n    function approve(address _spender, uint256 _value) public returns(bool succeed){\n        allowAnce[msg.sender][_spender] -= _value;\n        emit Approval(msg.sender, _spender, _value);\n        return true;\n    }\n\n\n    function approve(address _from, address _to, uint256 _value)public returns(bool succeed){\n        // Abality to transacting\n        require(allowAnce[_from][msg.sender] >= _value);\n        require(balanceOf[_from] >= _value);\n        // Add to receiver\n        balanceOf[_to] += _value;\n        // subtract the sender\n        balanceOf[_from] -= _value;\n        allowAnce[msg.sender][_from] -= _value;\n        emit Transfer(_from, _to, _value);\n        return true;\n\n    }\n\n\n\n\n\n\n\n\n}\n",
  "sourcePath": "/home/piti/web/dapp/src/contracts/RWD.sol",
  "compiler": {
    "name": "solc",
    "version": "0.8.20+commit.a1b79de6.Emscripten.clang"
  },
  "schemaVersion": "3.4.14",
  "updatedAt": "2023-06-16T13:46:30.160Z",
  "networkType": "ethereum",
  "devdoc": {
    "kind": "dev",
    "methods": {},
    "version": 1
  },
  "userdoc": {
    "kind": "user",
    "methods": {},
    "version": 1
  }
}