{
  "contractName": "RWD",
  "abi": [
    {
      "inputs": [],
      "stateMutability": "nonpayable",
      "type": "constructor"
    },
    {
      "anonymous": false,
      "inputs": [
        {
          "indexed": true,
          "internalType": "address",
          "name": "_owner",
          "type": "address"
        },
        {
          "indexed": true,
          "internalType": "address",
          "name": "_spender",
          "type": "address"
        },
        {
          "indexed": false,
          "internalType": "uint256",
          "name": "_value",
          "type": "uint256"
        }
      ],
      "name": "Approval",
      "type": "event"
    },
    {
      "anonymous": false,
      "inputs": [
        {
          "indexed": true,
          "internalType": "address",
          "name": "_from",
          "type": "address"
        },
        {
          "indexed": true,
          "internalType": "address",
          "name": "_to",
          "type": "address"
        },
        {
          "indexed": false,
          "internalType": "uint256",
          "name": "_value",
          "type": "uint256"
        }
      ],
      "name": "Transfer",
      "type": "event"
    },
    {
      "inputs": [
        {
          "internalType": "address",
          "name": "",
          "type": "address"
        }
      ],
      "name": "balanceOf",
      "outputs": [
        {
          "internalType": "uint256",
          "name": "",
          "type": "uint256"
        }
      ],
      "stateMutability": "view",
      "type": "function",
      "constant": true
    },
    {
      "inputs": [],
      "name": "decimal",
      "outputs": [
        {
          "internalType": "uint256",
          "name": "",
          "type": "uint256"
        }
      ],
      "stateMutability": "view",
      "type": "function",
      "constant": true
    },
    {
      "inputs": [],
      "name": "name",
      "outputs": [
        {
          "internalType": "string",
          "name": "",
          "type": "string"
        }
      ],
      "stateMutability": "view",
      "type": "function",
      "constant": true
    },
    {
      "inputs": [],
      "name": "symbol",
      "outputs": [
        {
          "internalType": "string",
          "name": "",
          "type": "string"
        }
      ],
      "stateMutability": "view",
      "type": "function",
      "constant": true
    },
    {
      "inputs": [],
      "name": "totalSupply",
      "outputs": [
        {
          "internalType": "uint256",
          "name": "",
          "type": "uint256"
        }
      ],
      "stateMutability": "view",
      "type": "function",
      "constant": true
    },
    {
      "inputs": [
        {
          "internalType": "address",
          "name": "_to",
          "type": "address"
        },
        {
          "internalType": "uint256",
          "name": "_value",
          "type": "uint256"
        }
      ],
      "name": "transfer",
      "outputs": [
        {
          "internalType": "bool",
          "name": "succeed",
          "type": "bool"
        }
      ],
      "stateMutability": "nonpayable",
      "type": "function"
    },
    {
      "inputs": [
        {
          "internalType": "address",
          "name": "_spender",
          "type": "address"
        },
        {
          "internalType": "uint256",
          "name": "_value",
          "type": "uint256"
        }
      ],
      "name": "approve",
      "outputs": [
        {
          "internalType": "bool",
          "name": "succeed",
          "type": "bool"
        }
      ],
      "stateMutability": "nonpayable",
      "type": "function"
    },
    {
      "inputs": [
        {
          "internalType": "address",
          "name": "_from",
          "type": "address"
        },
        {
          "internalType": "address",
          "name": "_to",
          "type": "address"
        },
        {
          "internalType": "uint256",
          "name": "_value",
          "type": "uint256"
        }
      ],
      "name": "transferFrom",
      "outputs": [
        {
          "internalType": "bool",
          "name": "succeed",
          "type": "bool"
        }
      ],
      "stateMutability": "nonpayable",
      "type": "function"
    }
  ],
  "bytecode": "0x60806040526040518060400160405280600c81526020017f52657761726420546f6b656e00000000000000000000000000000000000000008152505f90816200004991906200035f565b506040518060400160405280600381526020017f5257440000000000000000000000000000000000000000000000000000000000815250600190816200009091906200035f565b5069d3c21bcecceda10000006002556012600355348015620000b0575f80fd5b5060025460045f3373ffffffffffffffffffffffffffffffffffffffff1673ffffffffffffffffffffffffffffffffffffffff1681526020019081526020015f208190555062000443565b5f81519050919050565b7f4e487b71000000000000000000000000000000000000000000000000000000005f52604160045260245ffd5b7f4e487b71000000000000000000000000000000000000000000000000000000005f52602260045260245ffd5b5f60028204905060018216806200017757607f821691505b6020821081036200018d576200018c62000132565b5b50919050565b5f819050815f5260205f209050919050565b5f6020601f8301049050919050565b5f82821b905092915050565b5f60088302620001f17fffffffffffffffffffffffffffffffffffffffffffffffffffffffffffffffff82620001b4565b620001fd8683620001b4565b95508019841693508086168417925050509392505050565b5f819050919050565b5f819050919050565b5f62000247620002416200023b8462000215565b6200021e565b62000215565b9050919050565b5f819050919050565b620002628362000227565b6200027a62000271826200024e565b848454620001c0565b825550505050565b5f90565b6200029062000282565b6200029d81848462000257565b505050565b5b81811015620002c457620002b85f8262000286565b600181019050620002a3565b5050565b601f8211156200031357620002dd8162000193565b620002e884620001a5565b81016020851015620002f8578190505b620003106200030785620001a5565b830182620002a2565b50505b505050565b5f82821c905092915050565b5f620003355f198460080262000318565b1980831691505092915050565b5f6200034f838362000324565b9150826002028217905092915050565b6200036a82620000fb565b67ffffffffffffffff81111562000386576200038562000105565b5b6200039282546200015f565b6200039f828285620002c8565b5f60209050601f831160018114620003d5575f8415620003c0578287015190505b620003cc858262000342565b8655506200043b565b601f198416620003e58662000193565b5f5b828110156200040e57848901518255600182019150602085019450602081019050620003e7565b868310156200042e57848901516200042a601f89168262000324565b8355505b6001600288020188555050505b505050505050565b610b3e80620004515f395ff3fe608060405234801561000f575f80fd5b5060043610610086575f3560e01c806370a082311161005957806370a082311461012657806376809ce31461015657806395d89b4114610174578063a9059cbb1461019257610086565b806306fdde031461008a578063095ea7b3146100a857806318160ddd146100d857806323b872dd146100f6575b5f80fd5b6100926101c2565b60405161009f9190610853565b60405180910390f35b6100c260048036038101906100bd9190610904565b61024d565b6040516100cf919061095c565b60405180910390f35b6100e061034b565b6040516100ed9190610984565b60405180910390f35b610110600480360381019061010b919061099d565b610351565b60405161011d919061095c565b60405180910390f35b610140600480360381019061013b91906109ed565b6105c3565b60405161014d9190610984565b60405180910390f35b61015e6105d8565b60405161016b9190610984565b60405180910390f35b61017c6105de565b6040516101899190610853565b60405180910390f35b6101ac60048036038101906101a79190610904565b61066a565b6040516101b9919061095c565b60405180910390f35b5f80546101ce90610a45565b80601f01602080910402602001604051908101604052809291908181526020018280546101fa90610a45565b80156102455780601f1061021c57610100808354040283529160200191610245565b820191905f5260205f20905b81548152906001019060200180831161022857829003601f168201915b505050505081565b5f8160055f3373ffffffffffffffffffffffffffffffffffffffff1673ffffffffffffffffffffffffffffffffffffffff1681526020019081526020015f205f8573ffffffffffffffffffffffffffffffffffffffff1673ffffffffffffffffffffffffffffffffffffffff1681526020019081526020015f205f8282546102d59190610aa2565b925050819055508273ffffffffffffffffffffffffffffffffffffffff163373ffffffffffffffffffffffffffffffffffffffff167f8c5be1e5ebec7d5bd14f71427d1e84f3dd0314c0f7b2291e5b200ac8c7c3b925846040516103399190610984565b60405180910390a36001905092915050565b60025481565b5f8160055f8673ffffffffffffffffffffffffffffffffffffffff1673ffffffffffffffffffffffffffffffffffffffff1681526020019081526020015f205f3373ffffffffffffffffffffffffffffffffffffffff1673ffffffffffffffffffffffffffffffffffffffff1681526020019081526020015f205410156103d6575f80fd5b8160045f8673ffffffffffffffffffffffffffffffffffffffff1673ffffffffffffffffffffffffffffffffffffffff1681526020019081526020015f2054101561041f575f80fd5b8160045f8573ffffffffffffffffffffffffffffffffffffffff1673ffffffffffffffffffffffffffffffffffffffff1681526020019081526020015f205f82825461046b9190610ad5565b925050819055508160045f8673ffffffffffffffffffffffffffffffffffffffff1673ffffffffffffffffffffffffffffffffffffffff1681526020019081526020015f205f8282546104be9190610aa2565b925050819055508160055f3373ffffffffffffffffffffffffffffffffffffffff1673ffffffffffffffffffffffffffffffffffffffff1681526020019081526020015f205f8673ffffffffffffffffffffffffffffffffffffffff1673ffffffffffffffffffffffffffffffffffffffff1681526020019081526020015f205f82825461054c9190610aa2565b925050819055508273ffffffffffffffffffffffffffffffffffffffff168473ffffffffffffffffffffffffffffffffffffffff167fddf252ad1be2c89b69c2b068fc378daa952ba7f163c4a11628f55a4df523b3ef846040516105b09190610984565b60405180910390a3600190509392505050565b6004602052805f5260405f205f915090505481565b60035481565b600180546105eb90610a45565b80601f016020809104026020016040519081016040528092919081815260200182805461061790610a45565b80156106625780601f1061063957610100808354040283529160200191610662565b820191905f5260205f20905b81548152906001019060200180831161064557829003601f168201915b505050505081565b5f8160045f3373ffffffffffffffffffffffffffffffffffffffff1673ffffffffffffffffffffffffffffffffffffffff1681526020019081526020015f205410156106b4575f80fd5b8160045f8573ffffffffffffffffffffffffffffffffffffffff1673ffffffffffffffffffffffffffffffffffffffff1681526020019081526020015f205f8282546107009190610ad5565b925050819055508160045f3373ffffffffffffffffffffffffffffffffffffffff1673ffffffffffffffffffffffffffffffffffffffff1681526020019081526020015f205f8282546107539190610aa2565b925050819055508273ffffffffffffffffffffffffffffffffffffffff163373ffffffffffffffffffffffffffffffffffffffff167fddf252ad1be2c89b69c2b068fc378daa952ba7f163c4a11628f55a4df523b3ef846040516107b79190610984565b60405180910390a36001905092915050565b5f81519050919050565b5f82825260208201905092915050565b5f5b838110156108005780820151818401526020810190506107e5565b5f8484015250505050565b5f601f19601f8301169050919050565b5f610825826107c9565b61082f81856107d3565b935061083f8185602086016107e3565b6108488161080b565b840191505092915050565b5f6020820190508181035f83015261086b818461081b565b905092915050565b5f80fd5b5f73ffffffffffffffffffffffffffffffffffffffff82169050919050565b5f6108a082610877565b9050919050565b6108b081610896565b81146108ba575f80fd5b50565b5f813590506108cb816108a7565b92915050565b5f819050919050565b6108e3816108d1565b81146108ed575f80fd5b50565b5f813590506108fe816108da565b92915050565b5f806040838503121561091a57610919610873565b5b5f610927858286016108bd565b9250506020610938858286016108f0565b9150509250929050565b5f8115159050919050565b61095681610942565b82525050565b5f60208201905061096f5f83018461094d565b92915050565b61097e816108d1565b82525050565b5f6020820190506109975f830184610975565b92915050565b5f805f606084860312156109b4576109b3610873565b5b5f6109c1868287016108bd565b93505060206109d2868287016108bd565b92505060406109e3868287016108f0565b9150509250925092565b5f60208284031215610a0257610a01610873565b5b5f610a0f848285016108bd565b91505092915050565b7f4e487b71000000000000000000000000000000000000000000000000000000005f52602260045260245ffd5b5f6002820490506001821680610a5c57607f821691505b602082108103610a6f57610a6e610a18565b5b50919050565b7f4e487b71000000000000000000000000000000000000000000000000000000005f52601160045260245ffd5b5f610aac826108d1565b9150610ab7836108d1565b9250828203905081811115610acf57610ace610a75565b5b92915050565b5f610adf826108d1565b9150610aea836108d1565b9250828201905080821115610b0257610b01610a75565b5b9291505056fea26469706673582212209eb879ce6c999b8053999bf34cb40ff77d9f65c46a1899157001813602539b1164736f6c63430008140033",
  "immutableReferences": {},
  "source": "// SPDX-License-Identifier: MIT\npragma solidity ^0.8.13;\n\ncontract RWD{\n    string public name = \"Reward Token\";\n    string public symbol = \"RWD\";\n    uint public totalSupply = 1000000000000000000000000;\n    uint public decimal = 18;\n    mapping(address => uint)public balanceOf;\n    mapping(address => mapping(address => uint))allowAnce;\n\n    event Transfer(\n        address indexed _from,\n        address indexed _to,\n        uint _value\n\n    );\n\n    event Approval(\n        address indexed _owner,\n        address indexed _spender,\n        uint _value\n    );\n\n    constructor() public{\n        balanceOf[msg.sender] = totalSupply;\n    }\n\n\n    function transfer(address _to, uint256 _value)public returns(bool succeed){\n        // Abality to transacting\n        require(balanceOf[msg.sender] >= _value);\n        // Add to receiver\n        balanceOf[_to] += _value;\n        // subtract the sender\n        balanceOf[msg.sender] -= _value;\n        emit Transfer(msg.sender, _to, _value);\n        return true;\n    }\n\n    function approve(address _spender, uint256 _value) public returns(bool succeed){\n        allowAnce[msg.sender][_spender] -= _value;\n        emit Approval(msg.sender, _spender, _value);\n        return true;\n    }\n\n\n    function transferFrom(address _from, address _to, uint256 _value)public returns(bool succeed){\n        // Abality to transacting\n        require(allowAnce[_from][msg.sender] >= _value);\n        require(balanceOf[_from] >= _value);\n        // Add to receiver\n        balanceOf[_to] += _value;\n        // subtract the sender\n        balanceOf[_from] -= _value;\n        allowAnce[msg.sender][_from] -= _value;\n        emit Transfer(_from, _to, _value);\n        return true;\n\n    }\n\n\n\n\n\n\n\n\n}\n",
  "sourcePath": "/home/piti/web/MyDefi/src/contracts/RWD.sol",
  "compiler": {
    "name": "solc",
    "version": "0.8.20+commit.a1b79de6.Emscripten.clang"
  },
  "schemaVersion": "3.4.14",
  "updatedAt": "2023-07-12T07:38:58.095Z",
  "networkType": "ethereum",
  "devdoc": {
    "kind": "dev",
    "methods": {},
    "version": 1
  },
  "userdoc": {
    "kind": "user",
    "methods": {},
    "version": 1
  }
}