{
  "contractName": "Tether",
  "abi": [
    {
      "inputs": [],
      "stateMutability": "nonpayable",
      "type": "constructor"
    },
    {
      "anonymous": false,
      "inputs": [
        {
          "indexed": true,
          "internalType": "address",
          "name": "_owner",
          "type": "address"
        },
        {
          "indexed": true,
          "internalType": "address",
          "name": "_spender",
          "type": "address"
        },
        {
          "indexed": false,
          "internalType": "uint256",
          "name": "_value",
          "type": "uint256"
        }
      ],
      "name": "Approval",
      "type": "event"
    },
    {
      "anonymous": false,
      "inputs": [
        {
          "indexed": true,
          "internalType": "address",
          "name": "_from",
          "type": "address"
        },
        {
          "indexed": true,
          "internalType": "address",
          "name": "_to",
          "type": "address"
        },
        {
          "indexed": false,
          "internalType": "uint256",
          "name": "_value",
          "type": "uint256"
        }
      ],
      "name": "Transfer",
      "type": "event"
    },
    {
      "inputs": [
        {
          "internalType": "address",
          "name": "",
          "type": "address"
        },
        {
          "internalType": "address",
          "name": "",
          "type": "address"
        }
      ],
      "name": "allowAnce",
      "outputs": [
        {
          "internalType": "uint256",
          "name": "",
          "type": "uint256"
        }
      ],
      "stateMutability": "view",
      "type": "function",
      "constant": true
    },
    {
      "inputs": [],
      "name": "decimal",
      "outputs": [
        {
          "internalType": "uint256",
          "name": "",
          "type": "uint256"
        }
      ],
      "stateMutability": "view",
      "type": "function",
      "constant": true
    },
    {
      "inputs": [],
      "name": "name",
      "outputs": [
        {
          "internalType": "string",
          "name": "",
          "type": "string"
        }
      ],
      "stateMutability": "view",
      "type": "function",
      "constant": true
    },
    {
      "inputs": [],
      "name": "symbol",
      "outputs": [
        {
          "internalType": "string",
          "name": "",
          "type": "string"
        }
      ],
      "stateMutability": "view",
      "type": "function",
      "constant": true
    },
    {
      "inputs": [],
      "name": "totalSupllied",
      "outputs": [
        {
          "internalType": "uint256",
          "name": "",
          "type": "uint256"
        }
      ],
      "stateMutability": "view",
      "type": "function",
      "constant": true
    },
    {
      "inputs": [
        {
          "internalType": "address",
          "name": "_to",
          "type": "address"
        },
        {
          "internalType": "uint256",
          "name": "_value",
          "type": "uint256"
        }
      ],
      "name": "transfer",
      "outputs": [
        {
          "internalType": "bool",
          "name": "succeed",
          "type": "bool"
        }
      ],
      "stateMutability": "nonpayable",
      "type": "function"
    },
    {
      "inputs": [
        {
          "internalType": "address",
          "name": "_spender",
          "type": "address"
        },
        {
          "internalType": "uint256",
          "name": "_value",
          "type": "uint256"
        }
      ],
      "name": "approve",
      "outputs": [
        {
          "internalType": "bool",
          "name": "succeed",
          "type": "bool"
        }
      ],
      "stateMutability": "nonpayable",
      "type": "function"
    },
    {
      "inputs": [
        {
          "internalType": "address",
          "name": "_from",
          "type": "address"
        },
        {
          "internalType": "address",
          "name": "_to",
          "type": "address"
        },
        {
          "internalType": "uint256",
          "name": "_value",
          "type": "uint256"
        }
      ],
      "name": "transferFrom",
      "outputs": [
        {
          "internalType": "bool",
          "name": "succeed",
          "type": "bool"
        }
      ],
      "stateMutability": "nonpayable",
      "type": "function"
    }
  ],
  "bytecode": "0x60806040526040518060400160405280600b81526020017f4d6f636b205465746865720000000000000000000000000000000000000000008152505f90816200004991906200035f565b506040518060400160405280600481526020017f5553445400000000000000000000000000000000000000000000000000000000815250600190816200009091906200035f565b5069d3c21bcecceda10000006002556012600355348015620000b0575f80fd5b5060025460045f3373ffffffffffffffffffffffffffffffffffffffff1673ffffffffffffffffffffffffffffffffffffffff1681526020019081526020015f208190555062000443565b5f81519050919050565b7f4e487b71000000000000000000000000000000000000000000000000000000005f52604160045260245ffd5b7f4e487b71000000000000000000000000000000000000000000000000000000005f52602260045260245ffd5b5f60028204905060018216806200017757607f821691505b6020821081036200018d576200018c62000132565b5b50919050565b5f819050815f5260205f209050919050565b5f6020601f8301049050919050565b5f82821b905092915050565b5f60088302620001f17fffffffffffffffffffffffffffffffffffffffffffffffffffffffffffffffff82620001b4565b620001fd8683620001b4565b95508019841693508086168417925050509392505050565b5f819050919050565b5f819050919050565b5f62000247620002416200023b8462000215565b6200021e565b62000215565b9050919050565b5f819050919050565b620002628362000227565b6200027a62000271826200024e565b848454620001c0565b825550505050565b5f90565b6200029062000282565b6200029d81848462000257565b505050565b5b81811015620002c457620002b85f8262000286565b600181019050620002a3565b5050565b601f8211156200031357620002dd8162000193565b620002e884620001a5565b81016020851015620002f8578190505b620003106200030785620001a5565b830182620002a2565b50505b505050565b5f82821c905092915050565b5f620003355f198460080262000318565b1980831691505092915050565b5f6200034f838362000324565b9150826002028217905092915050565b6200036a82620000fb565b67ffffffffffffffff81111562000386576200038562000105565b5b6200039282546200015f565b6200039f828285620002c8565b5f60209050601f831160018114620003d5575f8415620003c0578287015190505b620003cc858262000342565b8655506200043b565b601f198416620003e58662000193565b5f5b828110156200040e57848901518255600182019150602085019450602081019050620003e7565b868310156200042e57848901516200042a601f89168262000324565b8355505b6001600288020188555050505b505050505050565b610b4b80620004515f395ff3fe608060405234801561000f575f80fd5b5060043610610086575f3560e01c806376809ce31161005957806376809ce31461012657806395d89b4114610144578063a9059cbb14610162578063ddf2f80c1461019257610086565b806306fdde031461008a578063095ea7b3146100a85780630d3636b5146100d857806323b872dd146100f6575b5f80fd5b6100926101c2565b60405161009f919061084d565b60405180910390f35b6100c260048036038101906100bd91906108fe565b61024d565b6040516100cf9190610956565b60405180910390f35b6100e061033a565b6040516100ed919061097e565b60405180910390f35b610110600480360381019061010b9190610997565b610340565b60405161011d9190610956565b60405180910390f35b61012e6105b2565b60405161013b919061097e565b60405180910390f35b61014c6105b8565b604051610159919061084d565b60405180910390f35b61017c600480360381019061017791906108fe565b610644565b6040516101899190610956565b60405180910390f35b6101ac60048036038101906101a791906109e7565b6107a3565b6040516101b9919061097e565b60405180910390f35b5f80546101ce90610a52565b80601f01602080910402602001604051908101604052809291908181526020018280546101fa90610a52565b80156102455780601f1061021c57610100808354040283529160200191610245565b820191905f5260205f20905b81548152906001019060200180831161022857829003601f168201915b505050505081565b5f8160055f3373ffffffffffffffffffffffffffffffffffffffff1673ffffffffffffffffffffffffffffffffffffffff1681526020019081526020015f205f8573ffffffffffffffffffffffffffffffffffffffff1673ffffffffffffffffffffffffffffffffffffffff1681526020019081526020015f20819055508273ffffffffffffffffffffffffffffffffffffffff163373ffffffffffffffffffffffffffffffffffffffff167f8c5be1e5ebec7d5bd14f71427d1e84f3dd0314c0f7b2291e5b200ac8c7c3b92584604051610328919061097e565b60405180910390a36001905092915050565b60025481565b5f8160045f8673ffffffffffffffffffffffffffffffffffffffff1673ffffffffffffffffffffffffffffffffffffffff1681526020019081526020015f2054101561038a575f80fd5b8160055f8673ffffffffffffffffffffffffffffffffffffffff1673ffffffffffffffffffffffffffffffffffffffff1681526020019081526020015f205f3373ffffffffffffffffffffffffffffffffffffffff1673ffffffffffffffffffffffffffffffffffffffff1681526020019081526020015f2054101561040e575f80fd5b8160045f8673ffffffffffffffffffffffffffffffffffffffff1673ffffffffffffffffffffffffffffffffffffffff1681526020019081526020015f205f82825461045a9190610aaf565b925050819055508160045f8573ffffffffffffffffffffffffffffffffffffffff1673ffffffffffffffffffffffffffffffffffffffff1681526020019081526020015f205f8282546104ad9190610ae2565b925050819055508160055f3373ffffffffffffffffffffffffffffffffffffffff1673ffffffffffffffffffffffffffffffffffffffff1681526020019081526020015f205f8673ffffffffffffffffffffffffffffffffffffffff1673ffffffffffffffffffffffffffffffffffffffff1681526020019081526020015f205f82825461053b9190610aaf565b925050819055508273ffffffffffffffffffffffffffffffffffffffff168473ffffffffffffffffffffffffffffffffffffffff167fddf252ad1be2c89b69c2b068fc378daa952ba7f163c4a11628f55a4df523b3ef8460405161059f919061097e565b60405180910390a3600190509392505050565b60035481565b600180546105c590610a52565b80601f01602080910402602001604051908101604052809291908181526020018280546105f190610a52565b801561063c5780601f106106135761010080835404028352916020019161063c565b820191905f5260205f20905b81548152906001019060200180831161061f57829003601f168201915b505050505081565b5f8160045f3373ffffffffffffffffffffffffffffffffffffffff1673ffffffffffffffffffffffffffffffffffffffff1681526020019081526020015f2054101561068e575f80fd5b8160045f3373ffffffffffffffffffffffffffffffffffffffff1673ffffffffffffffffffffffffffffffffffffffff1681526020019081526020015f205f8282546106da9190610aaf565b925050819055508160045f8573ffffffffffffffffffffffffffffffffffffffff1673ffffffffffffffffffffffffffffffffffffffff1681526020019081526020015f205f82825461072d9190610ae2565b925050819055508273ffffffffffffffffffffffffffffffffffffffff163373ffffffffffffffffffffffffffffffffffffffff167fddf252ad1be2c89b69c2b068fc378daa952ba7f163c4a11628f55a4df523b3ef84604051610791919061097e565b60405180910390a36001905092915050565b6005602052815f5260405f20602052805f5260405f205f91509150505481565b5f81519050919050565b5f82825260208201905092915050565b5f5b838110156107fa5780820151818401526020810190506107df565b5f8484015250505050565b5f601f19601f8301169050919050565b5f61081f826107c3565b61082981856107cd565b93506108398185602086016107dd565b61084281610805565b840191505092915050565b5f6020820190508181035f8301526108658184610815565b905092915050565b5f80fd5b5f73ffffffffffffffffffffffffffffffffffffffff82169050919050565b5f61089a82610871565b9050919050565b6108aa81610890565b81146108b4575f80fd5b50565b5f813590506108c5816108a1565b92915050565b5f819050919050565b6108dd816108cb565b81146108e7575f80fd5b50565b5f813590506108f8816108d4565b92915050565b5f80604083850312156109145761091361086d565b5b5f610921858286016108b7565b9250506020610932858286016108ea565b9150509250929050565b5f8115159050919050565b6109508161093c565b82525050565b5f6020820190506109695f830184610947565b92915050565b610978816108cb565b82525050565b5f6020820190506109915f83018461096f565b92915050565b5f805f606084860312156109ae576109ad61086d565b5b5f6109bb868287016108b7565b93505060206109cc868287016108b7565b92505060406109dd868287016108ea565b9150509250925092565b5f80604083850312156109fd576109fc61086d565b5b5f610a0a858286016108b7565b9250506020610a1b858286016108b7565b9150509250929050565b7f4e487b71000000000000000000000000000000000000000000000000000000005f52602260045260245ffd5b5f6002820490506001821680610a6957607f821691505b602082108103610a7c57610a7b610a25565b5b50919050565b7f4e487b71000000000000000000000000000000000000000000000000000000005f52601160045260245ffd5b5f610ab9826108cb565b9150610ac4836108cb565b9250828203905081811115610adc57610adb610a82565b5b92915050565b5f610aec826108cb565b9150610af7836108cb565b9250828201905080821115610b0f57610b0e610a82565b5b9291505056fea2646970667358221220106abeb6d24b26d554669713b2a6d9c867aec09ee58e5573513d0fdabccea2c864736f6c63430008140033",
  "immutableReferences": {},
  "source": "// SPDX-License-Identifier: MIT\npragma solidity ^0.8.13;\n\n\ncontract Tether{\n    string public name = 'Mock Tether';\n    string public symbol = 'USDT';\n    uint public totalSupllied = 1000000000000000000000000;\n    uint public decimal = 18;\n\n    event Transfer(\n        address indexed _from,\n        address indexed _to,\n        uint _value\n    );\n    event Approval(\n        address indexed _owner,\n        address indexed _spender,\n        uint _value\n    );\n\n    mapping(address => uint256) balanceOf;\n    mapping(address => mapping(address => uint256))public allowAnce;\n\n\n    constructor(){\n        balanceOf[msg.sender] = totalSupllied;\n    }\n\n\nfunction transfer(address _to, uint256 _value)public returns(bool succeed){\n    // Having enough coin to spend on\n    require(balanceOf[msg.sender] >= _value);\n    // Subtract of the sender\n    balanceOf[msg.sender] -= _value;\n    // Add to receiver\n    balanceOf[_to] += _value;\n    emit Transfer(msg.sender, _to , _value);\n    return true;\n\n}\n\n\nfunction approve(address _spender, uint256 _value) public returns(bool succeed){\n    allowAnce[msg.sender][_spender] = _value;\n    emit Approval(msg.sender, _spender, _value);\n    return true;\n}\n\n\n\n\nfunction transferFrom(address _from, address _to, uint256 _value) public returns(bool succeed){\n    // TransferFrom function refers to third party interactions..\n    require(balanceOf[_from] >= _value);\n    require(allowAnce[_from][msg.sender] >= _value);\n    // Subtract of the sender\n    balanceOf[_from] -= _value;\n    // Add to receiver\n    balanceOf[_to]   += _value;\n    allowAnce[msg.sender][_from] -= _value;\n    emit Transfer(_from, _to, _value);\n    return true;\n}\n   \n}",
  "sourcePath": "/home/piti/web/MyDefi/src/contracts/Tether.sol",
  "compiler": {
    "name": "solc",
    "version": "0.8.20+commit.a1b79de6.Emscripten.clang"
  },
  "schemaVersion": "3.4.14",
  "updatedAt": "2023-07-12T07:38:58.084Z",
  "networkType": "ethereum",
  "devdoc": {
    "kind": "dev",
    "methods": {},
    "version": 1
  },
  "userdoc": {
    "kind": "user",
    "methods": {},
    "version": 1
  }
}